:020000040000FA
:0600000072EF07F0120090
:02002A000000D4
:04002C00020EE66E6C
:100030008EEC07F0E55212000F0EE66E62EC07F050
:10004000E5521200050EE66E62EC07F0E552120072
:10005000D9CFE6FFE1CFD9FFFE0EDB50AD6E010E2A
:10006000E66E8EEC07F0E552E552E7CFD9FF1200BD
:1000700094928B92140EE66E62EC07F0E5528B823E
:10008000030EE66E8EEC07F0E55294821200040E29
:10009000E66E8EEC07F0E55282B210D0080EE66EE6
:1000A0008EEC07F0E55282A209D0050EE66E8EECCA
:1000B00007F0E552010EF36EF46A00D01200D9CFBA
:1000C000E6FFE1CFD9FF030EE126010EDB6A020E47
:1000D000DB6ADF6A080EDF5C31E282B209D0020E11
:1000E000DB2A020EDB50640801E202D00000F5D7E3
:1000F000030EE66E8EEC07F0E55282B208D0010ED8
:10010000DB50E824E76E010EE7CFDBFF15D0010ED0
:10011000DB50E8240109E76E010EE7CFDBFF020E9A
:10012000DB6A82A209D0020EDB2A020EDB506408D1
:1001300001E202D00000F5D7DF2ACCD7010EDB5058
:1001400000D0106E030EE15C02E2E16AE552E16E5E
:100150001050E552E7CFD9FF1200D9CFE6FFE1CF2B
:10016000D9FFFA0EDBCFE6FFFB0EDBCFE6FFFC0E7E
:10017000DBCFE6FFFD0EDB50E552E724E552E72436
:10018000E552E724F36EFE0EDB50F35C03E1010E53
:1001900003D002D0000E00D0E552E7CFD9FF120005
:1001A000D9CFE6FFE1CFD9FF030EE1260A0E106E8C
:1001B00010C00CF0FE0EDBCF07F080EC07F007500C
:1001C000DF6E0A0E106E10C00CF0FE0EDBCF07F0D3
:1001D00080EC07F0010E03C0DBFFFD0EDB50E76E85
:1001E000020EE7CFDBFF300EDF26106E010EDBCFF5
:1001F000E7FF1050E726010EE7CFDBFF300E106E51
:10020000020EDBCFE7FF1050E726020EE7CFDBFF41
:10021000480EE66E1DDFE552020EE66E62EC07F058
:10022000E5520D0EE66E14DFE552DFCFE6FF10DF7C
:10023000E552020EE66E62EC07F0E552010EDBCFEE
:10024000E6FF06DFE552020EE66E62EC07F0E552CD
:100250002E0EE66EFDDEE552020EE66E62EC07F053
:10026000E552020EDBCFE6FFF3DEE5520D0EE66E41
:10027000EFDEE552020EE66E62EC07F0E5520D0E7F
:10028000E66EE6DEE552020EE66E62EC07F0E5523F
:10029000030EE15C02E2E16AE552E16EE552E7CF6E
:1002A000D9FF1200D9CFE6FFE1CFD9FF030EE12637
:1002B0000A0E106E10C00CF0FE0EDBCF07F080ECC3
:1002C00007F00750DF6E0A0E106E10C00CF0FE0E25
:1002D000DBCF07F080EC07F0010E03C0DBFFFD0E63
:1002E000DB50E76E020EE7CFDBFF300EDF26106E2D
:1002F000010EDBCFE7FF1050E726010EE7CFDBFF53
:10030000300E106E020EDBCFE7FF1050E726020E14
:10031000E7CFDBFF540EE66E9BDEE552020EE66E83
:1003200062EC07F0E5520D0EE66E92DEE552DFCF8D
:10033000E6FF8EDEE552020EE66E62EC07F0E55255
:10034000010EDBCFE6FF84DEE552020EE66E62ECC4
:1003500007F0E5522E0EE66E7BDEE552020EE66EEB
:1003600062EC07F0E552020EDBCFE6FF71DEE552EC
:100370000D0EE66E6DDEE552020EE66E62EC07F0E3
:10038000E5520D0EE66E64DEE552020EE66E62EC9C
:1003900007F0E552030EE15C02E2E16AE552E16E2C
:1003A000E552E7CFD9FF1200D9CFE6FFE1CFD9FF61
:1003B0000E0EE126DF6AD950010FE96EDACFEAFFAF
:1003C000500EEE6E610EEE6E720EEE6E690EEE6EF9
:1003D000740EEE6E790EEE6E200EEE6E450EEE6E23
:1003E000720EEE6EEE6E6F0EEE6E720EEE6EEE6AC8
:1003F000D950010F106EDACF11F0DF500F01102429
:10040000E96E000E1120EA6EEF5016E0D950010F90
:10041000106EDACF11F0DF501024E96E000E1120BB
:10042000EA6EEF50E66E14DEE552DF2A020EE66E4B
:1004300062EC07F0E552DCD70D0EE66E09DEE55200
:10044000020EE66E62EC07F0E5520D0EE66E00DE7F
:10045000E552020EE66E62EC07F0E552320EE66EF1
:100460004BEC07F0E5520E0EE15C02E2E16AE55268
:10047000E16EE552E7CFD9FF1200D9CFE6FFE1CF19
:10048000D9FF150EE126DF6AD950010FE96EDACFE8
:10049000EAFF530EEE6E650EEE6E6E0EEE6E730E8E
:1004A000EE6E6F0EEE6E720EEE6E200EEE6E550E4E
:1004B000EE6E6E0EEE6E720EEE6E650EEE6E730EDC
:1004C000EE6E700EEE6E6F0EEE6E6E0EEE6E730EC4
:1004D000EE6E690EEE6E760EEE6E650EEE6EEE6AE6
:1004E000D950010F106EDACF11F0DF500F01102438
:1004F000E96E000E1120EA6EEF5016E0D950010FA0
:10050000106EDACF11F0DF501024E96E000E1120CA
:10051000EA6EEF50E66E9CDDE552DF2A020EE66ED3
:1005200062EC07F0E552DCD70D0EE66E91DDE55288
:10053000020EE66E62EC07F0E5520D0EE66E88DD07
:10054000E552020EE66E62EC07F0E552320EE66E00
:100550004BEC07F0E552150EE15C02E2E16AE55270
:10056000E16EE552E7CFD9FF1200D9CFE6FFE1CF28
:10057000D9FF030EE1260A0E106E10C00CF0FE0E1D
:10058000DBCF07F080EC07F00750DF6E0A0E106E2D
:1005900010C00CF0FE0EDBCF07F080EC07F0010E70
:1005A00003C0DBFFFD0EDB50E76E020EE7CFDBFF83
:1005B0002CEC07F0000901E0FBD7C70EE66E98ECC3
:1005C00006F0E552DF500CE02CEC07F0000901E0EA
:1005D000FBD7300EDF24E66E71EC06F0E5520DD04D
:1005E0002CEC07F0000901E0FBD7E00EE66E0C0EE4
:1005F000E66E20EC06F0E552E5522CEC07F000091F
:1006000001E0FBD7010EDB50300FE66E71EC06F017
:10061000E5522CEC07F0000901E0FBD7CA0EE66EAC
:1006200098EC06F0E5522CEC07F0000901E0FBD74E
:10063000020EDB50300FE66E71EC06F0E552030E51
:10064000E15C02E2E16AE552E16EE552E7CFD9FFF3
:100650001200D9CFE6FFE1CFD9FF030EE1260A0E43
:10066000106E10C00CF0FE0EDBCF07F080EC07F030
:100670000750DF6E0A0E106E10C00CF0FE0EDBCFBE
:1006800007F080EC07F0010E03C0DBFFFD0EDB502E
:10069000E76E020EE7CFDBFF2CEC07F0000901E06C
:1006A000FBD79B0EE66E98EC06F0E5522CEC07F0BB
:1006B000000901E0FBD7300EDF24E66E71EC06F096
:1006C000E5522CEC07F0000901E0FBD7010EDB50EE
:1006D000300FE66E71EC06F0E5522CEC07F00009E5
:1006E00001E0FBD79E0EE66E98EC06F0E5522CEC8E
:1006F00007F0000901E0FBD7020EDB50300FE66E79
:1007000071EC06F0E552030EE15C02E2E16AE552AB
:10071000E16EE552E7CFD9FF12002CEC07F000099B
:1007200001E0FBD7010EE66E98EC06F0E5522CECEA
:1007300007F0000901E0FBD7D10EE66E0C0EE66E65
:1007400020EC06F0E552E5522CEC07F0000901E040
:10075000FBD7010EE66E98EC06F0E55212002CEC89
:1007600007F0000901E0FBD7010EE66E98EC06F0F9
:10077000E5522CEC07F0000901E0FBD7BC0EE66E59
:100780000C0EE66E20EC06F0E552E5522CEC07F07C
:10079000000901E0FBD7010EE66E98EC06F0E55289
:0207A000120045
:0E07A20094948B84956A8C6A1200280EE66E81
:1007B00010EC05F0E5522CEC07F0000901E0FBD746
:1007C0000C0EE66E98EC06F0E5522CEC07F00009F2
:1007D00001E0FBD7800EE66E98EC06F0E5522CECBB
:1007E00007F0000901E0FBD7010EE66E98EC06F079
:1007F000E55212002CEC07F0000901E0FBD7AA0E2D
:10080000E66E0C0EE66E20EC06F0E552E5522CEC9E
:1008100007F0000901E0FBD7C00EE66E98EC06F089
:10082000E5522CEC07F0000901E0FBD7A20EE66EC2
:100830000C0EE66E20EC06F0E552E5522CEC07F0CB
:10084000000901E0FBD7C90EE66E98EC06F0E55210
:100850002CEC07F0000901E0FBD7A00EE66E0C0EB1
:10086000E66E20EC06F0E552E5522CEC07F00009AC
:1008700001E0FBD7CC0EE66E98EC06F0E5522CECCE
:1008800007F0000901E0FBD79C0EE66E0C0EE66E49
:1008900020EC06F0E552E5522CEC07F0000901E0EF
:1008A000FBD7940EE66E98EC06F0E5522CEC07F0C0
:1008B000000901E0FBD7940EE66E0C0EE66E20EC0C
:1008C00006F0E552E5522CEC07F0000901E0FBD7F9
:1008D0009D0EE66E98EC06F0E5522CEC07F0000950
:1008E00001E0FBD7A00EE66E0C0EE66E20EC06F0E3
:1008F000E552E5522CEC07F0000901E0FBD7A00E11
:10090000E66E98EC06F0E5522CEC07F0000901E0E9
:10091000FBD7920EE66E0C0EE66E20EC06F0E5526A
:10092000E5521200AB9EAC98B896AC84190EAF6E2F
:06093000AB8EAC8A120040
:0A093600D9CFE6FFE1CFD9FF060E8E
:10094000E126D1EC03F0D6EC03F0FAEC03F038EC3E
:1009500000F047EC00F0F3CF10F0F4CF11F010509E
:10096000111051E05FEC00F0DF6E5FEC00F0E76E1D
:10097000010EE7CFDBFF5FEC00F0E76E020EE7CF82
:10098000DBFF5FEC00F0E76E030EE7CFDBFF5FEC11
:1009900000F0E76E040EE7CFDBFF030EDBCFE6FFD0
:1009A000020EDBCFE6FF010EDBCFE6FFDFCFE6FF77
:1009B000040EDBCFE6FFADEC00F0106E050EE15E3D
:1009C0001050E76E050EE7CFDBFFDB5019E0030E9A
:1009D000DBCFE6FF020EDBCFE6FFB5EC02F0E5521F
:1009E000E552010EDBCFE6FFDFCFE6FF29EC03F097
:1009F000E552E552780EE66E4BEC07F0E55202D078
:100A00008DEC03F002D0AFEC03F0A1D7060EE15C51
:100A100002E2E16AE552E16EE552E7CFD9FF12004A
:100A2000D9CFE6FFE1CFD9FFF00E83169516959A40
:100A30009598959C8C9A8C988C9C1CEC00F0300EB0
:100A4000E66E98EC06F0E552050EE66E4BEC07F00C
:100A5000E552300EE66E98EC06F0E552010EE66EB9
:100A60004BEC07F0E552320EE66E98EC06F0E552DC
:100A70002CEC07F0000901E0FBD72CEC07F0000993
:100A800001E0FBD7FE0EDBCFE6FF98EC06F0E55267
:100A90002CEC07F0000901E0FBD7080EE66E98EC9D
:100AA00006F0E5522CEC07F0000901E0FBD70F0E31
:100AB000E66E98EC06F0E5522CEC07F0000901E038
:100AC000FBD7010EE66E98EC06F0E5522CEC07F031
:100AD000000901E0FBD7040EE66E98EC06F0E55243
:100AE0002CEC07F0000901E0FBD7800EE66ECEEC9F
:0E0AF00005F0E55200D0E552E7CFD9FF120025
:020AFE002A0EBE
:100B0000F66E000EF76E000EF86E00010900F5504B
:100B1000856F0900F550866F03E1856701D03DD0F0
:100B20000900F550806F0900F550816F0900F550FC
:100B3000826F09000900F550E96E0900F550EA6E70
:100B4000090009000900F550836F0900F550846F12
:100B500009000900F6CF87F0F7CF88F0F8CF89F0C9
:100B600080C0F6FF81C0F7FF82C0F8FF0001835309
:100B700002E1845307E00900F550EE6E8307F8E2C6
:100B80008407F9D787C0F6FF88C0F7FF89C0F8FF50
:0C0B900000018507000E865BBFD7120035
:040B9C00D9CFE6FFC8
:100BA000E1CFD9FFF00E95168316FE0EDB508009BB
:100BB000E8380F0B0F0B83128C9A8C9816EC00F010
:100BC0008C8C16EC00F08C9CF00E8316FE0EDB5025
:100BD0000F0B831216EC00F08C8C16EC00F08C9C42
:0E0BE0000F0E951200D0E552E7CFD9FF12009C
:020BEE00D9CF5D
:100BF000E6FFE1CFD9FFF00E95168316FE0EDB500F
:100C00004009E8380F0B0F0B83128C9A8C9816EC66
:100C100000F08C8C16EC00F08C9CF00E8316FE0E0F
:100C2000DB500F0B831216EC00F08C8C16EC00F0EE
:100C30008C9C0F0E951200D0E552E7CFD9FF120021
:100C4000D9CFE6FFE1CFD9FFFD0EDBCFF6FFFE0ED9
:100C5000DBCFF7FF0800F55017E02CEC07F0000998
:100C600001E0FBD7FD0EDBCFF6FFFE0EDBCFF7FF7B
:100C70000800F550E66E71EC06F0E552FD0EDB2A39
:100C8000FE0E01E3DB2AE0D700D0E552E7CFD9FF23
:020C9000120050
:0E0C9200250048756D69203D200064656700EF
:100CA0002E0054656D70203D2000444854313120A1
:100CB000496E746572666163696E670053656E7331
:100CC0006F7220556E726573706F6E7369766521F1
:100CD00000506172697479204572726F722121002F
:020CE0002000F2
:0E0CE200D9CFE6FFE1CFD9FFF00E95168316AD
:100CF000FE0EDB380F0B0F0B83128C888C9A16ECD0
:100D000000F08C8C16EC00F08C9CF00E8316FE0E1E
:100D1000DB500F0B831216EC00F08C8C16EC00F0FD
:100D20008C9C0F0E951200D0E552E7CFD9FF120030
:100D3000D9CFE6FFE1CFD9FFF00E95168316FE0E50
:100D4000DB380F0B0F0B83128C9A8C9816EC00F08B
:100D50008C8C16EC00F08C9CF00E8316FE0EDB5093
:100D60000F0B831216EC00F08C8C16EC00F08C9CB0
:0E0D70000F0E951200D0E552E7CFD9FF12000A
:020D7E00D9CFCB
:100D8000E6FFE1CFD9FFFD0EDBCFE9FFFE0EDBCFA3
:100D9000EAFFEF5016E02CEC07F0000901E0FBD76A
:100DA000FD0EDBCFE9FFFE0EDBCFEAFFEF50E66E74
:100DB00071EC06F0E552FD0EDB2AFE0E01E3DB2AA4
:0C0DC000E2D700D0E552E7CFD9FF1200C7
:040DCC00D9CFE6FF96
:100DD000E1CFD9FFE6528C8A8C8816EC00F08C8C1F
:100DE00016EC00F08338F00BF00BDF6E8C9C16ECE9
:100DF00000F08C8C16EC00F00F0E8314DF128C9C2C
:100E00008C988C9ADF5000D0E552E552E7CFD9FF9D
:020E10001200CE
:0E0E1200D9CFE6FFE1CFD9FFE6528C8A8C984B
:100E200016EC00F08C8C16EC00F08338F00BF00B15
:100E3000DF6E8C9C16EC00F08C8C16EC00F00F0E24
:100E40008314DF128C9C8C9A7F0EDF1400D0E55245
:080E5000E552E7CFD9FF1200C3
:080E58008C8A8C9816EC00F066
:100E60008C8C16EC00F083A60BD08C9C16EC00F05A
:100E70008C8C16EC00F08C9C8C9A010E0BD00AD056
:100E80008C9C16EC00F08C8C16EC00F08C9C8C9AF0
:060E9000000E00D012006C
:0A0E9600FF0EE350136EEF0E01D0C3
:100EA000F30EE76EE72E52EF07F00C0E126EE76AB4
:100EB000E72E58EF07F0122E57EF07F0132E50EFE2
:040EC00007F0120025
:0C0EC400FF0EE350136E480E01D04C0EE0
:100ED000E76EE72EFED7E76AE72EFED7132EF7D789
:040EE00000001200FC
:0C0EE40015EE00F025EE00F0F86A0F9CFF
:100EF0007FEC05F0A0EC07F09BEC04F0FBD71200B0
:100F0000036A080EE76ED890073603360C50035C70
:0C0F100002E3036E072AE72EF7D7120059
:040F1C00FF0EE35091
:100F2000E84E1200000000D000D000D0E82EFAD722
:020F30001200AD
:0E0F320000EE00F00F0EEE6AEA62FDD712002C
:020F400012009D
:020000040030CA
:0100010002FC
:010003001EDE
:010006008178
:00000001FF
